S01C00006176722D6578616D706C652D61746D65676131362E73726563A3
S11300000C942A000C943C000C943C000C943C008E
S11300100C943C000C943C000C94C5000C943C00E3
S11300200C943C000C943C000C943C000C943C005C
S11300300C943C000C943C000C943C000C943C004C
S11300400C943C000C943C000C943C000C943C003C
S11300500C943C0011241FBECFE5D4E0DEBFCDBF1D
S113006020E0A0E6B0E001C01D92AD3DB207E1F78B
S11300700E9460000C9484040C9400008091610040
S113008080FF04C088B3826088BB03C088B38D7FBF
S113009088BB809161008F5F809361000895809197
S11300A0600080FF04C088B3846088BB03C088B349
S11300B08B7F88BB809160008F5F80936000089580
S11300C087B38F6087BB0E948E020E94F9007894E8
S11300D00E9454027C0199230CF4FFCF0E94540225
S11300E06C01FF200CF4FFCF0E945402EC01992311
S11300F00CF4FFCF01E025E030E040E050E061E0A7
S1130100C7010E94C00288230CF4FFCF01E028E05D
S113011030E040E050E061E0C6010E94C002882364
S11301200CF4FFCF01E02AE030E040E050E061E071
S1130130CE010E94C00288230CF4FFCF6EE370E06E
S1130140C7010E943D046FE470E0C6010E943D04B3
S1130150C7010E940004C6010E940004CE010E944F
S1130160000410E0CE010E9461048823D9F310FF3B
S113017004C088B3886088BB03C088B3877F88BB0A
S11301801F5FCE010E947104EDCF1F920F920FB634
S11301900F9211242F933F934F935F936F937F9309
S11301A08F939F93AF93BF93EF93FF9380916200DC
S11301B080FF04C088B3816088BB03C088B38E7F8E
S11301C088BB809162008F5F809362000E9403016C
S11301D0FF91EF91BF91AF919F918F917F916F911B
S11301E05F914F913F912F910F900FBE0F901F90F1
S11301F0189587E08BBD83E38ABD1FBC8AE08EBD62
S113020080E189BF08950F931F93CF93C0E045C148
S11302108C2F90E0FC01EE0FFF1FE80FF91FEE0F8B
S1130220FF1FEE0FFF1FEB59FF4F208120FF34C14A
S1130230FC01EE0FFF1FE80FF91FEE0FFF1FEE0F7B
S1130240FF1FEB59FF4F208121FF26C1FC01EE0F58
S1130250FF1FE80FF91FEE0FFF1FEE0FFF1FEB59F3
S1130260FF4F218521FD18C1FC01EE0FFF1FE80F90
S1130270F91FEE0FFF1FEE0FFF1FEB59FF4F2185F4
S113028020FF0AC1FC01EE0FFF1FE80FF91FEE0F5C
S1130290FF1FEE0FFF1FEB59FF4F4581568167810A
S11302A070854F5F5F4F6F4F7F4F458356836783E2
S11302B0708745815681678170854F3F5F4F6F4FCF
S11302C07F4F71F4FC01EE0FFF1FE80FF91FEE0FD3
S11302D0FF1FEE0FFF1FEB59FF4F21852860218779
S11302E0FC01EE0FFF1FE80FF91FEE0FFF1FEE0FCB
S11302F0FF1FEB59FF4F208126952695237021304F
S113030009F44BC020F0223009F48AC0C5C0FC01B6
S1130310EE0FFF1FE80FF91FEE0FFF1FEE0FFF1F79
S1130320EB59FF4F05811681278130854181528128
S113033063817481041715072607370708F4ACC0D6
S1130340FC01EE0FFF1FE80FF91FEE0FFF1FEE0F6A
S1130350FF1FEB59FF4F21852460218721852E7FC4
S11303602187158216821782108622853385232BD6
S113037009F492C0FC01EE0FFF1FE80FF91FEE0F06
S1130380FF1FEE0FFF1FEB59FF4F21852B7F2187A6
S11303900284F385E02D09957FC0FC01EE0FFF1F59
S11303A0E80FF91FEE0FFF1FEE0FFF1FEB59FF4F72
S11303B00581168127813085418152816381748151
S11303C0041715072607370709F066C0FC01EE0F6E
S11303D0FF1FE80FF91FEE0FFF1FEE0FFF1FEB5972
S11303E0FF4F21852460218715821682178210868B
S11303F022853385232B09F44FC0FC01EE0FFF1F28
S1130400E80FF91FEE0FFF1FEE0FFF1FEB59FF4F11
S113041021852B7F21870284F385E02D09953CC03B
S1130420FC01EE0FFF1FE80FF91FEE0FFF1FEE0F89
S1130430FF1FEB59FF4F05811681278130854181CC
S1130440528163817481041715072607370721F544
S1130450FC01EE0FFF1FE80FF91FEE0FFF1FEE0F59
S1130460FF1FEB59FF4F21852460218722853385A7
S1130470232B91F0FC01EE0FFF1FE80FF91FEE0F85
S1130480FF1FEE0FFF1FEB59FF4F21852B7F2187A5
S11304900284F385E02D0995CF5FCA3008F4B8CE05
S11304A0CF911F910F91089580E011C0282F30E063
S11304B0F901EE0FFF1FE20FF31FEE0FFF1FEE0F08
S11304C0FF1FEB59FF4F908190FF05C08F5F8A306B
S11304D068F390E001C091E09923E9F090E0FC0119
S11304E0EE0FFF1FE80FF91FEE0FFF1FEE0FFF1FA8
S11304F0EB59FF4F108211821282138214821582EB
S11305001682178210861186218522602187208118
S11305102160208308958FEF9FEF089520E027C086
S1130520822F90E0AC01440F551FFA01E80FF91F28
S1130530EE0FFF1FEE0FFF1FEB59FF4F10821182CA
S113054012821382148215821682178210861186F3
S11305501386128631853260FA01E80FF91FEE0F17
S1130560FF1FEE0FFF1FEB59FF4F31872F5F2A301C
S1130570B8F20E945402909364008093630008953B
S11305800F93FC01EE0FFF1FE80FF91FEE0FFF1F83
S1130590EE0FFF1FEB59FF4F708170FFF3C0FC019A
S11305A0EE0FFF1FE80FF91FEE0FFF1FEE0FFF1FE7
S11305B0EB59FF4F71857D7F71876130C9F138F048
S11305C0623009F467C0633009F496C0A8C0FC0126
S11305D0EE0FFF1FE80FF91FEE0FFF1FEE0FFF1FB7
S11305E0EB59FF4F6081637F608322303105410501
S11305F0510570F4FC01EE0FFF1FE80FF91FEE0F19
S1130600FF1FEE0FFF1FEB59FF4F6185626061878B
S1130610FC01EE0FFF1FE80FF91FEE0FFF1FEE0F97
S1130620FF1FEB59FF4F218332834383548388C0D8
S1130630FC01EE0FFF1FE80FF91FEE0FFF1FEE0F77
S1130640FF1FEB59FF4F6081637F6460608322303A
S113065031054105510570F4FC01EE0FFF1FE80F51
S1130660F91FEE0FFF1FEE0FFF1FEB59FF4F6185C0
S113067062606187FC01EE0FFF1FE80FF91FEE0FA8
S1130680FF1FEE0FFF1FEB59FF4F2183328343837C
S1130690548356C0FC01EE0FFF1FE80FF91FEE0F45
S11306A0FF1FEE0FFF1FEB59FF4F6081637F6860F0
S11306B06083223031054105510570F4FC01EE0FD1
S11306C0FF1FE80FF91FEE0FFF1FEE0FFF1FEB597F
S11306D0FF4F618562606187FC01EE0FFF1FE80F29
S11306E0F91FEE0FFF1FEE0FFF1FEB59FF4F218382
S11306F032834383548324C0FC01EE0FFF1FE80FB1
S1130700F91FEE0FFF1FEE0FFF1FEB59FF4F208164
S11307102C602083118212821382148211C0FC0186
S1130720EE0FFF1FE80FF91FEE0FFF1FEE0FFF1F65
S1130730EB59FF4F20812C60208321852260218783
S1130740FC01EE0FFF1FE80FF91FEE0FFF1FEE0F66
S1130750FF1FEB59FF4F218521FD16C00023B1F087
S1130760FC01EE0FFF1FDF01A80FB91FAA0FBB1F6B
S1130770AA0FBB1FAB59BF4F2C912260FD012083F0
S113078080E005C08FEF03C08FEF01C080E00F91C0
S113079008958B30910574F5FC01EE0FFF1FE80FEF
S11307A0F91FEE0FFF1FEE0FFF1FEB59FF4F2081C4
S11307B020FF22C0FC01EE0FFF1FE80FF91FEE0F10
S11307C0FF1FEE0FFF1FEB59FF4F218521FD16C0C0
S11307D0FC01EE0FFF1FDF01A80FB91FAA0FBB1FFB
S11307E0AA0FBB1FAB59BF4F2C912260FD01208380
S11307F080E008958FEF08958FEF08958FEF0895A7
S1130800CF93DF938B30910584F5FC01EE0FFF1F2E
S1130810E80FF91FEE0FFF1FEE0FFF1FEB59FF4FFD
S1130820208120FF24C0EC010E94C903FE01EE0FC9
S1130830FF1FEC0FFD1FEE0FFF1FEE0FFF1FEB5905
S1130840FF4F808181FF15C09E01220F331FF901E4
S1130850EC0FFD1FEE0FFF1FEE0FFF1FEB59FF4FB5
S113086091859160918780E005C08FEF03C08FEF81
S113087001C08FEFDF91CF9108958B309105ECF497
S1130880FC01EE0FFF1FE80FF91FEE0FFF1FEE0F25
S1130890FF1FEB59FF4F208120FF11C0FC01EE0F19
S11308A0FF1FE80FF91FEE0FFF1FEE0FFF1FEB599D
S11308B0FF4F7387628780E008958FEF08958FEF6D
S11308C00895FC01EE0FFF1FE80FF91FEE0FFF1F45
S11308D0EE0FFF1FEB59FF4F818582FB882780F9BC
S11308E00895FC01EE0FFF1FDF01A80FB91FAA0F27
S11308F0BB1FAA0FBB1FAB59BF4F19962C91199759
S10F09002B7FFD0121870895F894FFCFA0
S9030000FC
